:100000000C9446000C9458000C9458000C94580022
:100010000C9458000C9458000C9458000C94580000
:100020000C9458000C9458000C9458000C945800F0
:100030000C9458000C9458000C9458000C945800E0
:100040000C9458000C9458000C9458000C945800D0
:100050000C9458000C9458000C9458000C945800C0
:100060000C9458000C9458000C9458000C945800B0
:100070000C9458000C9458000C9458000C945800A0
:100080000C9458000C9458000C94580011241FBE76
:10009000CFEFD0E1DEBFCDBF11E0A0E0B1E001C005
:1000A0001D92A130B107E1F70E9471000C948E00FF
:1000B0000C9400008FEF81BB82BB089582E0809397
:1000C00090008DE889B988E18AB982E38093950030
:1000D00008955D9BFECF8CB908955F9BFECF8CB1D8
:1000E0000895CF93DF930E945E000E945A00809192
:1000F00000010E946900C1E0D0E00E946D008E5FA7
:10010000809300019E01082E02C0220F331F0A9423
:10011000E2F7209522BB0E946900EFCFF894FFCF51
:00000001FF
