:100000000C9446000C9465000C9465000C946500FB
:100010000C9465000C9465000C9465000C946500CC
:100020000C9465000C9465000C9465000C946500BC
:100030000C9465000C9465000C9465000C946500AC
:100040000C94F2000C9465000C9465000C9465000F
:100050000C9465000C9465000C9465000C9465008C
:100060000C9465000C9465000C9465000C9465007C
:100070000C9465000C9465000C9465000C9465006C
:100080000C9465000C9465000C94650011241FBE4F
:10009000CFEFD0E1DEBFCDBF11E0A0E0B1E0E2E202
:1000A000F8E000E00BBF02C007900D92A631B10747
:1000B000D9F711E0A6E1B1E001C01D92A032B1076D
:1000C000E1F70E94C5000C940F040C940000DF932C
:1000D000CF93CDB7DEB760970FB6F894DEBF0FBEF3
:1000E000CDBFDE011196E5E0F1E090E101900D92C7
:1000F0009150E1F78A3028F4FE01E80FF11D81816B
:1001000001C08FED82BB60960FB6F894DEBF0FBEC4
:10011000CDBFCF91DF91089540E020E030E0C901EC
:100120000197F1F74F5F4A30D1F7089527E2803108
:100130009207C8F440E02AE030E00AC0E42FF0E083
:10014000B9010E943901E95EFE4F80834F5FCB0108
:100150000097A1F706C0E42FF0E0E95EFE4F1082A1
:100160004F5F4430C0F3089580E487B987E886B9CB
:10017000089597B18770892B87B9369A349BFECF43
:10018000349A24B135B1C9010895CF93DF9383B771
:10019000846083BF87B7816087BF12BE87B38F60DB
:1001A00087BB81E088BB8FEF81BB12BA78940E9435
:1001B000B40080E00E94B900EC01D695C795D0E06C
:1001C00000D0CE0180509F4FEDB7FEB79283818360
:1001D0000E944D010F900F90CE010E9496000E9448
:1001E0008C00E7CF1F920F920FB60F920BB60F92B3
:1001F00011242F933F934F935F936F937F938F932C
:100200009F93AF93BF93EF93FF9380911601833039
:1002100019F41092160103C08F5F8093160188B302
:10022000807F88BB28B330911601E32FF0E081E096
:1002300090E002C0880F991F3A95E2F7282B28BB5F
:10024000E95EFE4F808160E00E946700FF91EF91C0
:10025000BF91AF919F918F917F916F915F914F91DE
:100260003F912F910F900BBE0F900FBE0F901F90DC
:100270001895AA1BBB1B51E107C0AA1FBB1FA617DD
:10028000B70710F0A61BB70B881F991F5A95A9F73F
:1002900080959095BC01CD010895DF93CF93CDB7A4
:1002A000DEB7FE0135966191719180911C019091AC
:1002B0001D01AF010E945F01CF91DF9108952F9240
:1002C0003F924F925F926F927F928F929F92AF92E6
:1002D000BF92CF92DF92EF92FF920F931F93DF9323
:1002E000CF93CDB7DEB72C970FB6F894DEBF0FBE15
:1002F000CDBF6C011B018A01FC011782168283812C
:1003000081FFD1C12E010894411C511CF60193813B
:10031000F10193FD859193FF81911F01882309F4D9
:10032000BEC1853239F493FD859193FF81911F0100
:10033000853229F490E0B6010E948503E7CFEE24D0
:10034000FF2420E02032B0F48B3269F08C3228F4A4
:10035000803251F0833271F40BC08D3239F080332A
:1003600049F421602CC02260246029C0286027C085
:10037000206125C027FD2CC0382F30533A3098F427
:1003800026FF08C08E2D880FE82EEE0CEE0CE80E2E
:10039000E30E15C08F2D880FF82EFF0CFF0CF80E02
:1003A000F30E20620CC08E3221F426FD78C1206449
:1003B00006C08C3611F4206802C0883649F4F10179
:1003C00093FD859193FF81911F01882309F0BACF96
:1003D000982F9554933018F09052933028F40C5F76
:1003E0001F4FFFE3F9830DC0833631F0833771F07F
:1003F000833509F060C022C0F801808189830E5FD7
:100400001F4F420171E0A72EB12C16C062E0662E8C
:10041000712C600E711EF8018080918026FF03C050
:100420006E2D70E002C06FEF7FEFC4012C870E9439
:100430007A035C0183012C852F7717C052E0652E6B
:10044000712C600E711EF8018080918026FF03C020
:100450006E2D70E002C06FEF7FEFC4012C870E9409
:100460006F035C012C852068830123FD20C008C038
:1004700080E290E0B6012C870E948503FA942C85D7
:100480008F2D90E0A816B90698F311C0F40127FD4E
:10049000859127FF81914F0190E0B6012C870E9442
:1004A00085032C85F110FA940894A108B108A114D1
:1004B000B10461F7F1C0843611F0893649F527FFA0
:1004C00008C0F80160817181828193810C5F1F4FA8
:1004D00009C0F80160817181882777FD8095982F88
:1004E0000E5F1F4F4FE6B42EB22297FF09C09095C2
:1004F0008095709561957F4F8F4F9F4FF0E8BF2A91
:10050000A2012AE030E00E94B103782E741845C0A1
:10051000853731F43FEEB32EB2222AE030E025C019
:1005200099EFB92EB2228F36C1F0803720F488358A
:1005300009F0B5C00DC0803721F0883709F0AFC091
:1005400002C020E1B22AB4FE0BC084E0B82A08C081
:10055000B4FE09C0E6E0BE2A06C028E030E005C0CF
:1005600020E130E002C020E132E0B7FE08C0F8012F
:1005700060817181828193810C5F1F4F07C0F801F8
:100580006081718180E090E00E5F1F4FA2010E94A8
:10059000B103782E7418FFE7BF22B6FE0BC02EEF12
:1005A000B2227E1438F4B4FE07C0B2FC05C08FEE50
:1005B000B82202C0A72C01C0AE2C8B2D90E0B4FE57
:1005C0000DC0FE01E70DF11D2081203319F4E9EE85
:1005D000BE2209C0A394B2FE06C004C08678907003
:1005E000009709F0A3948B2C9924B3FC14C0B0FE9F
:1005F0000FC0AF1428F4E72CEF0CEA18AF2C08C09A
:10060000E72C06C080E290E0B6010E948503A39427
:10061000AF14C0F304C0AF1410F4FA1801C0FF24E3
:1006200084FE0FC080E390E0B6010E94850382FE45
:100630001FC081FE03C088E590E010C088E790E00D
:100640000DC0C40186789070009791F081FC02C0C3
:1006500080E201C08BE2B7FC8DE290E0B6010E941F
:10066000850306C080E390E0B6010E948503EA940A
:100670007E14C0F37A94F201E70DF11D808190E0C1
:10068000B6010E9485037720A9F706C080E290E0BA
:10069000B6010E948503FA94FF20C1F737CEF60118
:1006A0002681378102C02FEF3FEFC9012C960FB68C
:1006B000F894DEBF0FBECDBFCF91DF911F910F9198
:1006C000FF90EF90DF90CF90BF90AF909F908F9072
:1006D0007F906F905F904F903F902F900895FC0116
:1006E0000590615070400110D8F7809590958E0F5D
:1006F0009F1F0895FC016150704001900110D8F7D0
:10070000809590958E0F9F1F08950F931F93CF9301
:10071000DF938C01EB018B8181FF1BC082FF0DC039
:100720002E813F818C819D812817390764F4E881EF
:10073000F9810193F983E88306C0E885F985802F64
:100740000995009731F48E819F8101969F838E8356
:1007500002C00FEF1FEFC801DF91CF911F910F91E2
:100760000895FA01AA27283051F1203181F1E89447
:100770006F936E7F6E5F7F4F8F4F9F4FAF4FB1E094
:100780003ED0B4E03CD0670F781F891F9A1FA11D8F
:10079000680F791F8A1F911DA11D6A0F711D811D90
:1007A000911DA11D20D009F468943F912AE0269F55
:1007B00011243019305D3193DEF6CF010895462FB4
:1007C0004770405D4193B3E00FD0C9F7F6CF462F95
:1007D0004F70405D4A3318F0495D31FD40524193FE
:1007E00002D0A9F7EACFB4E0A695979587957795BB
:1007F0006795BA95C9F700976105710508959B0142
:10080000AC010A2E06945795479537952795BA95CA
:10081000C9F7620F731F841F951FA01D0895F894D8
:02082000FFCF08
:1008220074203D20003F065B4F666D7D077F6F772A
:060832007C395E797100C3
:00000001FF
