:100000000C9446000C9458000C9458000C94580022
:100010000C9458000C9458000C9458000C94580000
:100020000C9458000C9458000C9458000C945800F0
:100030000C9458000C9458000C9458000C945800E0
:100040000C9458000C9458000C9458000C945800D0
:100050000C9458000C9458000C9458000C945800C0
:100060000C9458000C9458000C9458000C945800B0
:100070000C9458000C9458000C9458000C945800A0
:100080000C9458000C9458000C94580011241FBE76
:10009000CFEFD0E1DEBFCDBF11E0A0E0B1E001C005
:1000A0001D92A130B107E1F70E9473000C948E00FD
:1000B0000C9400008FEF81BB82BB089582E0809397
:1000C00090008DE889B988E18AB982E18093950032
:1000D0000E945A0008955F9BFECF8CB108955D9BEE
:1000E000FECF8CB90895CF93DF930E945E0080917C
:1000F00000010E946F00C1E0D0E00E946B008F5FA2
:10010000809300019E01082E02C0220F331F0A9423
:10011000E2F7209522BB0E946F00EFCFF894FFCF4B
:00000001FF
