:100000000C9446000C9465000C9465000C946500FB
:100010000C9465000C9465000C9465000C946500CC
:100020000C9465000C9465000C9465000C946500BC
:100030000C9465000C9465000C9465000C946B00A6
:100040000C9465000C9465000C9465000C9465009C
:100050000C9465000C9465000C9465000C9465008C
:100060000C9465000C9465000C9465000C9465007C
:100070000C9465000C9465000C9465000C9465006C
:100080000C9465000C9465000C94650011241FBE4F
:10009000CFEFD0E1DEBFCDBF11E0A0E0B1E0E2E400
:1000A000F2E000E00BBF02C007900D92A230B10752
:1000B000D9F711E0A2E0B1E001C01D92A630B1076E
:1000C000E1F70E940B010C941F010C9400008FEFCC
:1000D00081BB82BB08951F920F920FB60F920BB691
:1000E0000F9211242F933F934F935F936F937F93BE
:1000F0008F939F93EF93FF9380910201909103015F
:1001000082309105D1F18330910509F45DC08130D1
:10011000910509F065C0E0910401F0910501CF015E
:10012000019690930501809304018181817092B3BF
:100130009F7092BB62B390E0AC01E4E0440F551FA6
:10014000EA95E1F79C0175E0220F331F7A95E1F7FC
:10015000422B462B9C0156E0220F331F5A95E1F7A4
:10016000422B9695982F882797958795482B42BBC9
:1001700081E28A95F1F7000033C0E0910401F0912B
:1001800005018081805F8083E0910401F091050189
:100190006081617082B3807F82BB72B3862F90E0F2
:1001A000AC01440F551F9C01220F331F220F331F38
:1001B000242B762B272B33E0880F991F3A95E1F7F4
:1001C000282B22BB00C00CC0E0910401F091050176
:1001D00081E080838FEF82BB1092030110920201B5
:1001E00012BE809102019091030101969093030148
:1001F00080930201FF91EF919F918F917F916F9179
:100200005F914F913F912F910F900BBE0F900FBEBA
:100210000F901F9018958FE191E2909305018093C4
:10022000040181E080931F210E94670087E083BF63
:1002300080E981BF87B7826087BF7894FFCFF89449
:02024000FFCFEE
:02024200220098
:00000001FF
